:100000000C94F3000C94FA0D0C94D30D0C941B017A
:100010000C941B010C941B010C941B010C941B01F0
:100020000C941B010C941B010C941B010C94980F55
:100030000C941B010C941B010C941B010C941B01D0
:100040000C94890D0C941B010C94470E0C94210EFA
:100050000C941B010C941B010C941B010C941B01B0
:100060000C94790E0C941B0107634236B79BD8A7FA
:100070001A39685618AEBAAB558C1D3CB7CC5763CD
:10008000BD6DEDFD753EF6177231BF000000803F7B
:1000900008000000BE922449123EABAAAA2ABECD97
:1000A000CCCC4C3E00000080BEABAAAAAA3E000009
:1000B0000000BF000000803F000000000008417801
:1000C000D3BB4387D1133D190E3CC3BD4282AD2B38
:1000D0003E68EC8276BED98FE1A93E4C80EFFFBE30
:1000E00001C4FF7F3F00000000002D2D3E2052C3C1
:1000F0008955535349452021002D2D3E20C3894366
:10010000484543E280A6005D00496E697469616CF0
:1001100069736174696F6E20647520424D45323891
:10012000302C20C3A0206C27616472657373652036
:100130005B307800206D00416C74697475646520D3
:10014000657374696DC3A965203D20002068506106
:10015000005072657373696F6E2061746D6F737098
:1001600068C3A97269717565203D2000202500488B
:10017000756D69646974C3A9203D200020C2B04335
:100180000054656D70C3A9726174757265203D205D
:100190000000000000240027002A000000000025C5
:1001A0000028002B000404040404040404020202D6
:1001B00002020203030303030301020408102040A8
:1001C0008001020408102001020408102000000031
:1001D0000800020100000304070000000000000006
:1001E00000007810911411241FBECFEFD8E0DEBFBD
:1001F000CDBF11E0A0E0B1E0EAE7F8E302C005906E
:100200000D92AA37B107D9F723E0AAE7B1E001C000
:100210001D92A133B207E1F710E0C2EFD0E004C0B5
:100220002197FE010E94BE16C13FD107C9F70E9467
:10023000D5100C94301C0C9400008230910538F0DD
:10024000880F991F880F991F05970197F1F7089557
:10025000AF92BF92CF92DF92EF92FF920F931F93D4
:10026000CF93DF93EC0188819981892B89F06EBD52
:100270000DB407FEFDCFBEB48B2DDF91CF911F9142
:100280000F91FF90EF90DF90CF90BF90AF900895C7
:100290008885998511E0892B09F010E8AA24A39498
:1002A000862F812309F0A12C062F2C813D814E81C0
:1002B0005F8160E271EA87E090E00E94E714F22E2D
:1002C000B02EE12CC22ED12CFF2019F0C6010E94C5
:1002D0001D018A85877F09F042C08D858F3F89F097
:1002E000902F912381E009F480E08A1551F0EF8589
:1002F000F8898F89992369F19081892B8083AA24B9
:10030000A394E989FA898081998D892B8083FF20C4
:1003100019F0C6010E941D018E858F3F39F0EB89CF
:10032000FC898081988D892309F0E12AE989FA897D
:100330009081898D8095892380838E858F3F09F0F8
:10034000BE2C88859985892BB9F5110F1111BCCF69
:1003500093CF9081809589238083A12CD2CFE98986
:10036000FA898081998D892B8083FF2019F0C6013D
:100370000E941D018D858F3F49F0EF85F8898F8997
:10038000902F9123A9F09081892B8083E989FA89A4
:100390009081898D8095892380838E858F3F69F236
:1003A000EB89FC898081988D892339F2E12AC5CFB8
:1003B000908180958923E9CF1695C8CF0895089537
:1003C00090E0FC01E353FE4F2491FC01E754FE4F03
:1003D0003491FC01EB55FE4FE491EE23C9F022234A
:1003E00039F0233001F1A8F4213019F1223029F13C
:1003F000F0E0EE0FFF1FE556FE4FA591B4918FB7C9
:10040000F894EC91611126C030953E233C938FBF48
:1004100008952730A9F02830C9F0243049F7809199
:1004200080008F7D03C0809180008F778093800053
:10043000DFCF84B58F7784BDDBCF84B58F7DFBCFD5
:100440008091B0008F778093B000D2CF8091B000C0
:100450008F7DF9CF3E2BDACF0F931F93CF93DF938E
:10046000D82FC8E00BE410E08091290361E0D7FFAA
:1004700060E00E94E00160E0809128030E94E001BA
:10048000C8010197F1F761E0809128030E94E00123
:10049000C8010197F1F7DD0FC15031F7DF91CF911E
:1004A0001F910F910895FC0183858F3F19F061E042
:1004B0000C94E0010895FC0180819181892B39F031
:1004C000A281B3819C9111968C919CBD8DBD838539
:1004D0008F3F19F060E00C94E0010895CF92DF9215
:1004E000EF92FF920F931F93CF93DF938C01EB0159
:1004F0006A0179010E945B026881C8010E9428019B
:10050000E601EC0CFD1C6FEFC8010E9428018993E5
:10051000CE15DF05C1F7C8010E94530281E0DF91CB
:10052000CF911F910F91FF90EF90DF90CF900895A2
:10053000CF93DF9390E0FC01E754FE4F24918B555D
:100540009E4FFC0184918823D1F090E0880F991F81
:10055000FC01EF56FE4FA591B491FC01E556FE4F0C
:10056000C591D49161110EC09FB7F8948C91E22F80
:10057000E0958E238C932881E223E8839FBFDF914F
:10058000CF9108958FB7F894EC91E22BEC938FBF45
:10059000F6CF3FB7F8948091CA019091CB01A0911A
:1005A000CC01B091CD0126B5A89B05C02F3F19F015
:1005B0000196A11DB11D3FBFBA2FA92F982F8827E3
:1005C000BC01CD01620F711D811D911D42E0660FBE
:1005D000771F881F991F4A95D1F708958F929F9290
:1005E000AF92BF92CF92DF92EF92FF924B015C01EC
:1005F0000E94C9026B017C010E94C9026C197D092D
:100600008E099F09683E734081059105A8F321E09A
:10061000821A9108A108B10888EEC80E83E0D81E9E
:10062000E11CF11C81149104A104B10429F7FF908D
:10063000EF90DF90CF90BF90AF909F908F900895F4
:100640000895AF92BF92CF92DF92EF92FF920F93F5
:100650001F93CF93DF936C017B018B01040F151F58
:10066000EB015E01AE18BF08C017D10759F06991C0
:10067000D601ED91FC910190F081E02DC601099524
:10068000892B79F7C501DF91CF911F910F91FF90D1
:10069000EF90DF90CF90BF90AF900895FC01538D05
:1006A000448D252F30E0842F90E0821B930B54174C
:1006B00010F0CF96089501970895FC01918D828DD9
:1006C000981761F0A28DAE0FBF2FB11D5D968C9172
:1006D000928D9F5F9F73928F90E008958FEF9FEFB1
:1006E0000895FC01918D828D981731F0828DE80F6D
:1006F000F11D858D90E008958FEF9FEF0895FC0127
:10070000918D228D892F90E0805C9F4F821B9109F3
:100710008F739927089584E492E00E947F0321E07B
:10072000892B09F420E0822F089580E090E0892B46
:1007300029F00E948B0381110C9400000895FC01A4
:10074000A48DA80FB92FB11DA35ABF4F2C91848D32
:1007500090E001968F739927848FA689B7892C938F
:10076000A089B1898C91837080648C93938D848DE2
:10077000981306C00288F389E02D80818F7D8083E5
:100780000895EF92FF920F931F93CF93DF93EC01A5
:1007900081E0888F9B8D8C8D98131AC0E889F98928
:1007A000808185FF15C09FB7F894EE89FF8960832B
:1007B000E889F98980818370806480839FBF81E0AC
:1007C00090E0DF91CF911F910F91FF90EF900895EE
:1007D000F62E0B8D10E00F5F1F4F0F731127E02EC9
:1007E0008C8D8E110CC00FB607FCFACFE889F98901
:1007F000808185FFF5CFCE010E949F03F1CFEB8D65
:10080000EC0FFD2FF11DE35AFF4FF0829FB7F894D4
:100810000B8FEA89FB8980818062CFCF0F931F9372
:10082000CF93DF938C01D0E0C0E0F801EC0FFD1F07
:100830006491662341F084E492E00E94C103892B15
:1008400011F02196F2CFCE01DF91CF911F910F9140
:100850000895CF93DF93EC01888D8823B9F0AA899E
:10086000BB89E889F9898C9185FD03C0808186FD6B
:100870000DC00FB607FCF7CF8C9185FFF2CF8081BA
:1008800085FFEDCFCE010E949F03E9CFDF91CF918D
:1008900008952091A101260F3327331F21323105FE
:1008A000ECF420911A02FC0190E080E0243069F021
:1008B00082E00895A091A1012191AC014F575E4FB4
:1008C000A40FB52FB11D2C930196861798F3809134
:1008D000A101680F6093A10180E0089581E008956F
:1008E00010921A0281E0809319021092F40161E0E3
:1008F00082E10E94E00161E083E10E94E001E9EB16
:10090000F0E080818E7F808380818D7F808388E48A
:100910008093B80085E48093BC000895CF93DF9363
:1009200091E0909380018823B9F0C091B800D091F4
:10093000BA008091BC008A7B8093BC0060E082E1B9
:100940000E94E00160E083E10E94E0010E947004E7
:10095000D093BA00C093B800DF91CF9108958F92E1
:100960009F92AF92BF92CF92DF92EF92FF920F933E
:100970001F93CF93DF93D0914302D13208F0D7C0B9
:10098000182FC09142020E94C9026B017C01809124
:100990001A0281116BC082E080931A02109319022F
:1009A0008FEF8093180210921702D0931602A2E2E2
:1009B000B2E0E6EFF1E080E0D81391C01092F501CB
:1009C0008091F501CC0FC82BC093F5018091F40103
:1009D000813009F088C01092F4010E94C9026B01B5
:1009E0007C018091F5018093BB0080911C02909165
:1009F0001D02A0911E02B0911F02892B8A2B8B2B06
:100A0000A1F00E94C90200911C0210911D022091C8
:100A10001E0230911F026C197D098E099F0906176D
:100A200017072807390708F442C08091BC0083FDEE
:100A3000D8CF85EC8093BC000E94C9026B017C0179
:100A400080911A02823009F450C0809118028F3FC1
:100A500009F46FC080911802803209F46CC0809153
:100A60001802803309F469C084E026C080911C021A
:100A700090911D02A0911E02B0911F02892B8A2B1A
:100A80008B2B09F484CF0E94C90280901C029090A5
:100A90001D02A0901E02B0901F026C197D098E09E4
:100AA0009F0986169706A806B90608F070CF8091B0
:100AB0001B020E948E0485E01092210210924302D4
:100AC00010922002DF91CF911F910F91FF90EF9034
:100AD000DF90CF90BF90AF909F908F9008959D91A1
:100AE00091938F5F69CF85EEA5CF80911C02909185
:100AF0001D02A0911E02B0911F02892B8A2B8B2B05
:100B000009F49ECF0E94C90200911C0210911D029F
:100B100020911E0230911F026C197D098E099F09D8
:100B2000061717072807390708F08ACFC0CF81E0DA
:100B3000C3CF80E0C1CF82E0BFCF83E0BDCF1F93A2
:100B4000CF93DF93EA01122FDC0111968D919C91D6
:100B5000DC01ED91FC910280F381E02D0995C8172D
:100B6000D90729F4812F0E94AF0491E0811190E010
:100B7000892FDF91CF911F910895CF93DF93EC01DF
:100B80008B818823A1F0888191E09093200280934B
:100B90004202109221021092430281E00E94AF04AF
:100BA00091E0811190E0892FDF91CF91089510920B
:100BB000D3011092D20110922102109243020E949E
:100BC00070048EED91E09093D1018093D0018FED70
:100BD00091E09093CF018093CE0181E08B83CE0191
:100BE0000E94BD05982F8111CECFDDCF0895E091F1
:100BF000D3018091D201E81730F4F0E0EC52FE4FBF
:100C0000808190E008958FEF9FEF08959091D30138
:100C10008091D2012FEF3FEF981748F4E92FF0E0D1
:100C2000EC52FE4F208130E09F5F9093D301C901C9
:100C300008958091D2019091D301891B990B089559
:100C4000CF92DF92EF92FF920F931F93CF93DF9398
:100C50007C01CB018A0120912002222389F0EB0143
:100C60006B01C40ED51ECC15DD0569F06991D70165
:100C7000ED91FC910190F081E02DC7010995F3CF32
:100C8000642F0E944904C801DF91CF911F910F91F9
:100C9000FF90EF90DF90CF900895CF93DF931F9256
:100CA000CDB7DEB76983209120022223F9F020918D
:100CB0004302203258F021E030E0FC0133832283EC
:100CC00090E080E00F90DF91CF9108958091210214
:100CD000E82FF0E0EE5DFD4F998190838F5F809368
:100CE00021028093430281E090E0ECCF61E0CE01ED
:100CF00001960E944904F7CF90E080E008950F9399
:100D00001F93CF93DF9300D0CDB7DEB76A83E09116
:100D1000ED02F091EE023097F9F08983848195819C
:100D2000029798F0808191E0909320028093420294
:100D3000109221021092430221E042E050E0BE01F5
:100D40006F5F7F4FCF010E949F050F900F90DF9143
:100D5000CF911F910F9108958F7789830091EF02B2
:100D60001091F002C8010E945B026981C8010E94D3
:100D700028016A81C8010E942801C8010E9453020B
:100D8000E4CF2F923F924F925F926F927F928F9219
:100D90009F92AF92BF92CF92DF92EF92FF920F930A
:100DA0001F93CF93DF93DC011496ED91FC9115977F
:100DB000EF2B09F425C169012A01EC01888191E03A
:100DC00090932002809342021092210210924302DB
:100DD00020E041E050E0CD010E949F05782E88235D
:100DE00009F40EC1F12CE12C332433948C819D81C4
:100DF00086010E191F098017910708F48C012880BD
:100E00000E94C9024B015C0180911A02811173C0DA
:100E1000602EB0E2B01710F480E2682E30921A0211
:100E200021E0C601801B910BE816F90608F420E0CA
:100E300020931902EFEFE0931802109217028FEF40
:100E4000860D809316023092F5018091F501220CF7
:100E5000282A2092F5018091F401813009F090C098
:100E60001092F4010E94C9024B015C018091F501CE
:100E70008093BB0080911C0290911D02A0911E02E4
:100E8000B0911F02892B8A2B8B2BA1F00E94C902E3
:100E900020911C0230911D0240911E0250911F02B0
:100EA000681979098A099B092617370748075907DE
:100EB00008F442C08091BC0083FDD8CFF5ECF093DC
:100EC000BC000E94C9024B015C0180911A02813072
:100ED00009F45AC080911702861510F46090170229
:100EE000A6EFB1E0E4EDF1E080E0861551F19D91CF
:100EF00091938F5FFACF80911C0290911D02A09177
:100F00001E02B0911F02892B8A2B8B2B09F47CCFF8
:100F10000E94C90220911C0230911D0240911E02C4
:100F200050911F02681979098A099B09261737070A
:100F30004807590708F068CF80911B020E948E0471
:100F4000612C1092D3016092D2016016110609F053
:100F500057C042018E0C9F1C5401C5018819990984
:100F60008017910798F589819A81DC01ED91FC91B8
:100F70000284F385E02D0995F50181935F01EDCFA2
:100F800085EE8093BC009DCF80911C0290911D0244
:100F9000A0911E02B0911F02892B8A2B8B2B09F482
:100FA00094CF0E94C90220911C0230911D024091F1
:100FB0001E0250911F02681979098A099B09261798
:100FC00037074807590708F080CFB6CFE00EF11E6B
:100FD000EC14FD0408F40ACF872DDF91CF911F9107
:100FE0000F91FF90EF90DF90CF90BF90AF909F90C8
:100FF0008F907F906F905F904F903F902F900895CB
:10100000712CEACFCF93DF931F92CDB7DEB7E0917B
:10101000ED02F091EE02898321E030E0AE014F5FF6
:101020005F4FBA01309741F0CF010E94C10689811C
:101030000F90DF91CF9108958091EF029091F0028F
:101040000E946E02F4CFCF93DF9300D0CDB7DEB70E
:10105000E091ED02F091EE02898322E030E0AE01F2
:101060004F5F5F4FBA01309769F0CF010E94C10610
:1010700089819A819827892798270F900F90DF916F
:10108000CF9108958091EF029091F0020E946E023C
:10109000EFCF0E9423089827892798270895CF9398
:1010A000DF9300D01F92CDB7DEB7E091ED02F09153
:1010B000EE02898323E030E0AE014F5F5F4FBA015B
:1010C0003097A9F0CF010E94C10629816A8170E0A2
:1010D00090E080E0982F872F762F6627822B2B8138
:1010E000622B0F900F900F90DF91CF910895809118
:1010F000EF029091F0020E946E02E7CF4F925F9252
:101100006F927F928F929F92AF92BF92CF92DF9217
:10111000EF92FF928AEF0E944F086115710520E857
:101120008207910509F49BC06B017C0184E0F59472
:10113000E794D794C7948A95D1F7409004035090D0
:101140000503C701B60128E030E040E050E00E940E
:101150000915712C612CD301C201880F991FAA1F98
:10116000BB1F281B390B4A0B5B0BA0910603B091E8
:1011700007030E9433154B015C01C701B60120E152
:1011800030E040E050E00E940915CA01B90164193D
:101190007509860997099B01AC010E94D7149B0130
:1011A000AC017CE055954795379527957A95D1F711
:1011B000A0910803B09109030E9433152B013C0153
:1011C000C501B40120E038E040E050E00E9409157C
:1011D00069017A01C301B20120E030E440E050E04F
:1011E0000E9409152C0D3D1D4E1D5F1D80910003B1
:1011F00090910103A0910203B0910303280F391FBE
:101200004A1F5B1F2093FC023093FD024093FE02B5
:101210005093FF02A5E0B0E00E94281560587F4F70
:101220008F4F9F4F20E031E040E050E00E940915D1
:10123000CA01B9010E94EE1720E030E048EC52E408
:101240000E944517FF90EF90DF90CF90BF90AF9036
:101250009F908F907F906F905F904F90089560E087
:1012600070E080EC9FE7EECF2F923F924F925F921B
:101270006F927F928F929F92AF92BF92CF92DF92A6
:10128000EF92FF920F931F93CF93DF93CDB7DEB70B
:101290006B970FB6F894DEBF0FBECDBF0E947E08DD
:1012A00087EF0E944F086E8B7F8B888F998F611517
:1012B00071058048910509F4AEC28091FC029091BD
:1012C000FD02A091FE02B091FF026C017D01FF0CB6
:1012D000CC08DC2C76019C01AD016C2D7C2D8C2D75
:1012E0009C2D345F414051096109710981099109BF
:1012F00029833A834B835C836D837E838F87992E0A
:1013000059016A017B01082F192F0E943B152B8F71
:10131000832E742E652E462E272E888B998B309126
:101320000D0320910C03932F990F990B492F592FDF
:10133000692F792F892F0E943B150CE00E946A16B5
:101340002A8F3F83542E352E6A8B7B8B8C8B9D8B03
:1013500030910F0320910E03932F990F990BAB8CB3
:10136000B82CC72CD62CE42CF22C08891989492FCB
:10137000592F692F792F892F0E943B15F22E032FA9
:10138000142FB52FF62FE72FD82EE92EA0E00E94BC
:10139000B21684F421503F4F4F4F5F4F6F4F7F4F36
:1013A0008F4F9F4FF22E032F142FB52FF62FE72FBD
:1013B000D82EE92E2F2D302F412F5B2F6F2F7E2F10
:1013C0008D2D9E2D08E00E948316AA8CBF80C52C0F
:1013D000D32CEA88FB880C891D890E94A0167058BE
:1013E0008F4F9F4FE0910A03F0910B035F01D12CC7
:1013F000C12CE12CF12C8701EF83B886C986DA86EF
:10140000EB86FC860D871E87C12CD12CE12CF12C9C
:1014100000E010E00E943B1589014F83B52FF62FA5
:10142000E72F7C01A0E00E94B21674F4215031092C
:10143000410951096E4F7F4F8F4F9F4F89014F8355
:10144000B52FF62FE72F7C0198014F815B2F6F2F6F
:101450007E2FC70101E20E9483162A8F532E4F83ED
:101460005A8B6B8B7C8B8D8B392EA0E00E94B21631
:1014700009F4D6C13091150320911403932F990FCD
:10148000990BAB8CB82CC72CD62CE42CF22C0889E9
:101490001989492F592F692F792F892F0E943B15C0
:1014A000222E388B442E652E762E872E898B9B8F8D
:1014B0003091130320911203932F990F990BA98058
:1014C000BA80CB80DC80ED80FE800F85192D492FFE
:1014D000592F692F792F892F0E943B1501E10E9416
:1014E0006A16A22CB888C42CD62CE72CF82C0989B3
:1014F0001B8D0E94A01659016A017B01482E192FED
:101500004E895F89688D798D34E07595679557951B
:1015100047953A95D1F780E090E0A0E1B0E0841BD8
:10152000950BA60BB70B3C014D01990C6608762C68
:1015300043019C01AD01662D762D862D962D0FE180
:101540000E946A16722E832E942E5983B62FA72FCF
:10155000F82FE92F3091110320911003932F990F49
:10156000990B492F592F692F792F892F03E20E9458
:101570006A16042D0E94A01659016A017B018C0194
:10158000272D382D492D59816B2F7A2F8F2F9E2F84
:101590000E94A916E5E3AE2EFCE0BF2EC12CD12C93
:1015A000E12CF12C00E010E00E943B15AA8CB52C38
:1015B000CF80DA88EB88FC880D89132D0E94951561
:1015C0002F873F832A013B014C01F22E032F142F5A
:1015D000B52DF62FE72DD82EE92CA0E00E94B216EB
:1015E00084F42150304E4F4F5F4F6F4F7F4F8F4FDE
:1015F0009F4FF22E032F142FB52FF62FE72FD82E43
:10160000E92E2F2D302F412F5B2F6F2F7E2F8D2D09
:101610009E2D0DE00E94831629833A834B835C83C1
:101620006D837E83382E292E30911B0320911A035F
:10163000932F990F990BA980BA806A017B01032D22
:10164000122D492F592F692F792F892F0E943B1571
:101650000E943B15F22E032F142FB52FF62FE72FE4
:10166000D82EE92EA0E00E94B21684F42150310950
:1016700041095E4F6F4F7F4F8F4F9F4FF22E032FC9
:10168000142FB52FF62FE72FD82EE92E2F2D302F20
:10169000412F5B2F6F2F7E2F8D2D9E2D09E10E94F4
:1016A0008316AF84BF806201730184010E94A0167B
:1016B000190149835A836B837C838D839E83309188
:1016C000190320911803932F990F990B492F592F24
:1016D000692F792F892F0E943B15122F3F874F8347
:1016E000B52FF62FE72FF82E092FA0E00E94B21693
:1016F00084F421503109484F5F4F6F4F7F4F8F4F18
:101700009F4F122F3F874F83B52FF62FE72FF82ECD
:10171000092F212F3F854F815B2F6F2F7E2F8F2D1C
:10172000902F03E10E94831659016A017B018C010D
:10173000910149815A816B817C818D819E810E94BA
:10174000A016122F3A834983B52FF62FE72FF82ED4
:10175000092FA0E00E94B21684F421503F4F4F4F52
:101760005F4F6F4F7F4F8F4F9F4F122F3A834983A9
:10177000B52FF62FE72FF82E092F212F3A81498117
:101780005B2F6F2F7E2F8F2D902F08E00E948316E6
:101790002983F32F6A017B01E82F192F809116030B
:1017A00090911703092E000CAA0BBB0B4C015D0195
:1017B000BB0C8808982C54019C01AD01682D782D34
:1017C000882D982D04E00E946A16A980BF2E0E2F46
:1017D0000E94A0160E94E61720E030E040E85BE39C
:1017E0000E94F1186B960FB6F894DEBF0FBECDBF06
:1017F000DF91CF911F910F91FF90EF90DF90CF90ED
:10180000BF90AF909F908F907F906F905F904F9020
:101810003F902F90089560E070E080EC9FE7E2CF6A
:1018200060E070E0CB01DECFFC0101900020E9F721
:101830003197AF01481B590BBC0184E492E00C9432
:10184000210382E391E00C94140CCF93DF930E9468
:101850000E04EC010E94210C8C0F9D1FDF91CF9193
:1018600008958F929F92AF92BF920F931F93CF9341
:10187000DF93CDB7DEB7A1970FB6F894DEBF0FBEEA
:10188000CDBF19A2423008F44AE08E010F5D1F4F10
:10189000842E912CB12CA12CA50194010E94E71457
:1018A000E62FB901CA01EA30F4F4E05DD801EE9305
:1018B0008D01232B242B252B79F790E080E01097C6
:1018C00019F0CD010E94140CA1960FB6F894DEBF5A
:1018D0000FBECDBFDF91CF911F910F91BF90AF9001
:1018E0009F908F900895E95CE1CF4F925F926F9245
:1018F0007F928F929F92AF92BF92CF92DF92EF92A0
:10190000FF920F931F93CF936B017C01742EAC0158
:101910009B010E94AE19882399F085E391E0CF9155
:101920001F910F91FF90EF90DF90CF90BF90AF90FD
:101930009F908F907F906F905F904F900C94140CBD
:1019400046015701E894B7F82FEF3FEF4FE75FE705
:10195000C501B4010E94AE1981110DC02FEF3FEFF8
:101960004FE75FE7C501B4010E94401718161CF449
:1019700089E391E0D4CF2FEF3FEF4FE75FE4C7015A
:10198000B6010E94EC1818161CF48DE391E0C7CF45
:101990002FEF3FEF4FE75FECC701B6010E94401702
:1019A00087FDF3CF20E030E0A901C701B6010E9416
:1019B000401710E000E087FF0AC06DE284E492E087
:1019C0000E94C1038C01F7FAF094F7F8F094C0E09C
:1019D00060E070E080E09FE37C1641F020E030E0C2
:1019E00040E251E40E944517CF5FF6CFA701960170
:1019F0000E94D4162B013C010E94B7174B015C01D9
:101A00004AE00E94310C7C01E00EF11ECC23C1F1B2
:101A1000C501B4010E94EC179B01AC01C301B201E6
:101A20000E94D3164B015C016EE284E492E00E94B6
:101A3000C103E80EF91EC15018F120E030E040E289
:101A400051E4C501B4010E94F1182B013C010E9430
:101A5000B7174B01B12CA12C4AE0C501B4010E947B
:101A6000310CE80EF91EC501B4010E94EC179B0170
:101A7000AC01C301B2010E94D3164B015C01DBCF64
:101A8000C701CF911F910F91FF90EF90DF90CF9002
:101A9000BF90AF909F908F907F906F905F904F908E
:101AA000089585ED8093BC0080911C0290911D02E9
:101AB000A0911E02B0911F020796A11DB11D23E047
:101AC000B695A795979587952A95D1F72091BC0053
:101AD00024FD03C010921A02089540911C025091F7
:101AE0001D0260911E0270911F02452B462B472B51
:101AF00069F30097A105B10541F025E32A95F1F7B7
:101B000000000197A109B109E1CF80911B020C945B
:101B10008E041F920F920FB60F9211242F933F93B2
:101B20008F939F93AF93BF938091C6019091C7010C
:101B3000A091C801B091C9013091C50123E0230FE4
:101B40002D3758F50196A11DB11D2093C501809335
:101B5000C6019093C701A093C801B093C9018091B9
:101B6000CA019091CB01A091CC01B091CD01019619
:101B7000A11DB11D8093CA019093CB01A093CC010C
:101B8000B093CD01BF91AF919F918F913F912F91D4
:101B90000F900FBE0F901F90189526E8230F029606
:101BA000A11DB11DD2CF1F920F920FB60F9211241B
:101BB0002F933F934F935F936F937F938F939F9355
:101BC000AF93BF93EF93FF93E0910601F09107016C
:101BD0000995FF91EF91BF91AF919F918F917F9167
:101BE0006F915F914F913F912F910F900FBE0F908A
:101BF0001F9018951F920F920FB60F9211242F93DA
:101C00003F934F935F936F937F938F939F93AF9384
:101C1000BF93EF93FF93E0910401F09105010995C3
:101C2000FF91EF91BF91AF919F918F917F916F91B4
:101C30005F914F913F912F910F900FBE0F901F908A
:101C400018951F920F920FB60F9211242F933F9366
:101C50004F935F936F937F938F939F93AF93BF93B4
:101C6000EF93FF9384E492E00E949F03FF91EF9132
:101C7000BF91AF919F918F917F916F915F914F91A4
:101C80003F912F910F900FBE0F901F9018951F92AC
:101C90000F920FB60F9211242F938F939F93EF9370
:101CA000FF93E0915402F09155028081E0915A0235
:101CB000F0915B0282FD1BC0908180915D028F5F7D
:101CC0008F7320915E02821741F0E0915D02F0E097
:101CD000EC5BFD4F958F80935D02FF91EF919F919B
:101CE0008F912F910F900FBE0F901F9018958081AC
:101CF000F4CF1F920F920FB60F9211242F933F93A0
:101D00004F935F936F937F938F939F93AF93BF9303
:101D1000EF93FF938091B900887F803609F44AC021
:101D2000F0F5883209F4A7C018F5803109F49BC09A
:101D3000B8F4882309F4F9C0883009F494C0FF91FD
:101D4000EF91BF91AF919F918F917F916F915F9133
:101D50004F913F912F910F900FBE0F901F901895AC
:101D6000883109F488C0803251F78093180214C07A
:101D7000803409F49DC040F48033B9F38833F9F618
:101D80008093180285ECB0C0803509F485C0883591
:101D900009F496C0883499F60E94510DD0CF883945
:101DA00009F48CC038F5883729F050F4883611F0E2
:101DB000803729F683E080931A021092C30157C03E
:101DC000883809F47BC0803919F0803809F0B7CF22
:101DD0008091C301803208F071C0E091C30181E0BD
:101DE0008E0F8093C3018091BB00F0E0ED55FE4F54
:101DF00080833DC0803B39F0E0F4803A09F479C03B
:101E0000883A09F09CCF84E080931A021092A201D4
:101E10001092A101E091D001F091D101099580913A
:101E2000A10181110FC081E08093A1011092810175
:101E300009C0803C09F4A6CF883C09F4A3CF883BB5
:101E400009F07DCFE091A20181E08E0F8093A20185
:101E5000F0E0EF57FE4F80818093BB009091A2018C
:101E60008091A10129C08091F5018093BB0085EC90
:101E70008093BC0064CF909117028091160298174E
:101E800058F5E091170281E08E0F80931702F0E081
:101E9000EA50FE4F8081E9CFE091170281E08E0F7A
:101EA000809317028091BB00F0E0EA50FE4F8083E0
:101EB00090911702809116029817C8F285E8D8CF42
:101EC000E091170281E08E0F809317028091BB0092
:101ED000F0E0EA50FE4F80838091190281115CCFBF
:101EE00081E08093F40184EA8093BC0010921A028E
:101EF00026CF85EC8093BC0010921A028091C3011A
:101F0000803230F4E091C301F0E0ED55FE4F1082D5
:101F10006091C30170E0E091CE01F091CF0183EABE
:101F200091E009951092C3010ACF1092180234CFA4
:101F30001F920F920FB60F921124EF92FF920F9300
:101F40001F932F933F934F935F936F937F938F9341
:101F50009F93AF93BF93CF93DF93EF93FF938091C2
:101F60007E0190917F01892B31F480917C019091C9
:101F70007D01892B29F180917A0190917B01019754
:101F8000F9F08091000190910101A0910201B091BE
:101F90000301892B8A2B8B2B99F080910001909162
:101FA0000101A0910201B09103010197A109B109BA
:101FB0008093000190930101A0930201B09303016B
:101FC00080917A0190917B010197F9F48091000151
:101FD00090910101A0910201B0910301892B8A2BFC
:101FE0008B2B51F18091000190910101A091020190
:101FF000B09103010197A109B10980930001909369
:102000000101A0930201B0930301FF91EF91DF91D1
:10201000CF91BF91AF919F918F917F916F915F9180
:102020004F913F912F911F910F91FF90EF900F9043
:102030000FBE0F901F90189510927B0110927A019D
:1020400080E00E942C0280E00E942C0280E00E942E
:102050002C0280E00E942C02C0E0FF24FA9483E06E
:10206000E82E80912A03C817B0F5C1110FC0E09186
:102070002B03F0912C031082E0912B03F0912C03A1
:10208000F182E0912B03F0912C031282E0912B035B
:10209000F0912C03CE9DE00DF11D112402811181E0
:1020A000D08180EC07FF80EE06FF806117FF88601B
:1020B00016FF8460D7FF8260D6FF81600E942C02E9
:1020C000802F0E942C02812F0E942C028D2F0E94B3
:1020D0002C02CF5FC6CF80E00E942C0280E00E94DD
:1020E0002C0280E00E942C0280E00E942C028DCF06
:1020F000CF93DF93E4E4F2E01382128288EE93E060
:10210000A0E0B0E084839583A683B78322E131E029
:102110003183208325EC30E03587248724EC30E0C0
:102120003787268720EC30E0318B208B21EC30E0A4
:10213000338B228B22EC30E0358B248B26EC30E085
:10214000378B268B118E128E138E148EE1EEF2E0F9
:102150001382128284839583A683B78384E291E0FD
:1021600091838083C8E2D3E087E0888388E0898315
:1021700081E08A8361E070E083E090E00E94E81AE9
:102180009C838B83EDEEF2E0118210821382128227
:10219000158214821782168211861086138A148A79
:1021A000158A168ADF91CF910895CF93DF9300D0DF
:1021B00000D0CDB7DEB7789484B5826084BD84B595
:1021C000816084BD85B5826085BD85B5816085BD32
:1021D00080916E00816080936E00109281008091EA
:1021E0008100826080938100809181008160809372
:1021F0008100809180008160809380008091B10097
:1022000084608093B1008091B00081608093B000C1
:1022100080917A00846080937A0080917A00826055
:1022200080937A0080917A00816080937A00809117
:102230007A00806880937A001092C100E091540285
:10224000F091550282E08083E0915002F0915102BA
:102250001082E0915202F09153028FEC8083109231
:102260005C02E0915802F091590286E08083E0918F
:102270005602F0915702808180618083E09156027E
:10228000F0915702808188608083E0915602F0913E
:102290005702808180688083E0915602F091570256
:1022A00080818F7D808381E491E00E94140C0E94E4
:1022B000210C8DE591E00E94140C0E94210C0E94DB
:1022C000210C89E091E00E940E0440E166E770E095
:1022D00080E090E00E94310C87E091E00E94250CA4
:1022E0002091EF023091F0023A832983232B09F0E9
:1022F00041C08091ED029091EE02009711F00E9492
:10230000A01B86E090E00E94041B9A83898386E7E5
:10231000E981FA81808381EE92E092838183138246
:1023200080E290E095838483F093EE02E093ED02E7
:102330001092D3011092D201109221021092430206
:102340000E9470048EED91E09093D1018093D001B2
:102350008FED91E09093CF018093CE0181E0E981F0
:10236000FA818383CF010E94BD0581114FC089EF9F
:1023700090E059C1E981FA8183858F3F49F061E09E
:102380000E94980261E0E981FA8183850E94E00160
:10239000E981FA8180819181892B09F493C2FFB68A
:1023A000F8948091C401811127C0EFEAF1E0849193
:1023B000E3ECF1E09491E82FF0E0EE0FFF1FEF5611
:1023C000FE4FA591B491EC91E92321F461E08AE0FC
:1023D0000E94E00161E08AE00E9498028CB5806171
:1023E0008CBD8CB580648CBD61E08DE00E9498024C
:1023F00061E08BE00E9498028091C4018F5F80931E
:10240000C401FFBE81E0E981FA81838F80ED0E94E3
:10241000020890E0B0E0A0E08093F8029093F90207
:10242000A093FA02B093FB0280369105A105B10595
:1024300009F09DCF66EB80EE0E947F066AE070E0B7
:1024400080E090E00E94EE0283EF0E94020880FD8F
:10245000F5CF88E80E944908909305038093040310
:102460008AE80E94490890930703809306038CE84A
:102470000E94490890930903809308038EE80E9404
:10248000490890930B0380930A0380E90E9449084E
:1024900090930D0380930C0382E90E944908909366
:1024A0000F0380930E0384E90E944908909311035F
:1024B0008093100386E90E94490890931303809348
:1024C000120388E90E94490890931503809314032E
:1024D0008AE90E94490890931703809316038CE9B8
:1024E0000E94490890931903809318038EE90E9473
:1024F000490890931B0380931A0381EA0E94020803
:1025000080931C0381EE0E94490890931E038093E0
:102510001D0383EE0E94020880931F0384EE0E9435
:102520000208898385EE0E940208F98140E1F402E5
:10253000900111248F70282B3093210320932003C6
:1025400086EE0E940208898385EE0E940208F981C6
:1025500020E1F202F001112490E0A4E09595879526
:10256000AA95E1F78E2B9F2B909323038093220350
:1025700087EE0E940208809324038DEE8093260349
:10258000809127038F71806A8093270380912503B0
:10259000807C8F778093250360E084EF0E947F0624
:1025A0006091270362956695677082EF0E947F06AF
:1025B00080912503682F677030E2639FB00111247A
:1025C000282F269526952695277044E0249F900174
:1025D0001124622B87FB882780F9682B85EF0E94E6
:1025E0007F0680912603682F677090E2699FB00193
:1025F0001124282F2695269526952770E4E02E9FF6
:1026000090011124622B8295869586958370682BA4
:1026100084EF0E947F0664E670E080E090E00E9414
:10262000EE028AEE90E00E94250C0E94210C412CC3
:1026300074E0572E612C712C81E891E00E940E0409
:102640000E947E0842E00E94750C8CE791E00E9497
:10265000250C8FE691E00E940E040E947E088DEF0B
:102660000E942308B0E0A0E08115F0E89F07A105D3
:10267000B10509F451C1C090FC02D090FD02E09078
:10268000FE02F090FF022CE2D21A21E0E20AF108E9
:102690004C015D014EE0880C991CAA1CBB1C4A959C
:1026A000D1F78091200390912103092E000CAA0BF1
:1026B000BB0B54E1880F991FAA1FBB1F5A95D1F776
:1026C000881A990AAA0ABB0AA0912203B09123038F
:1026D000A70196010E943315861A970AA80AB90A1B
:1026E000C501B401705C8F4F9F4F20E030E840E09F
:1026F00050E00E94091529833A834B835C83A091A3
:102700001F03B0E0A70196010E94281520E038E0E1
:1027100040E050E00E94091549015A0180E8980EF6
:10272000A11CB11CA09124030A2E000CBB0BA70115
:1027300096010E943315A30192010E940915CA0156
:10274000B901A50194010E94D714A30192010E942E
:102750000915405E5F4FA0911D03B0911E030E94BA
:102760003315705E8F4F9F4F20E030E440E050E023
:102770000E94091569817A818B819C810E94D714FE
:102780006B017C0120E030E840E050E00E94091538
:10279000CA01B9010E94D7149B01AC0167E05595AD
:1027A0004795379527956A95D1F7A0911C03B0E01E
:1027B0000E94281520E130E040E050E00E94091519
:1027C000C21AD30AE40AF50AF7FE03C0C12CD12CC1
:1027D000760191E0C916D104E10499E1F9062CF0E3
:1027E000C12CD12CE12C39E1F32EC701B6012CE02C
:1027F00095958795779567952A95D1F70E94EC175F
:1028000020E030E040E85AE30E94F11842E00E94E4
:10281000750C8CE691E00E94250C81E591E00E9408
:102820000E040E94340920E030E048EC52E40E949B
:10283000451742E00E94750C8CE491E00E94250C43
:1028400087E391E00E940E040E94340920E030E00A
:1028500048EC52E40E9445172DEC3CE140E854E47A
:102860000E94451721E03EED42E45EE30E945E19BE
:102870009B01AC0160E070E080E89FE30E94D3160A
:1028800020E03AE24DE257E40E94F11842E00E9453
:10289000750C84E391E00E94250C6CED75E080E0FE
:1028A00090E00E94EE020E94210CE0E0F0E0EF2BAD
:1028B00009F4C2CE0E948B03882309F4BDCE0E9486
:1028C0000000BACE61E0E981FA8184850E94980215
:1028D000E981FA8182858B7F60E019F061E0E9810E
:1028E000FA8184850E94E001E981FA8185858F3F24
:1028F00049F061E00E94980261E0E981FA818585F2
:102900000E94E001E981FA8186858F3F09F47ACD42
:1029100060E00E94980276CD60E070E080EC9FE776
:1029200075CFCF93DF93C091EF02D091F002209743
:1029300039F08A819B810E94A01BCE010E94A01BBE
:102940008091ED029091EE02009711F00E94A01B81
:102950008091F1029091F202009739F0DC01ED9143
:10296000FC910280F381E02D09958091F302909112
:10297000F402009739F0DC01ED91FC910280F381C3
:10298000E02D09958091F5029091F602009739F0BB
:10299000DC01ED91FC910280F381E02D099580919D
:1029A0002B0390912C03DF91CF910C94A01BDB01A2
:1029B0008F939F930E942815BF91AF91A29F800D86
:1029C000911DA39F900DB29F900D11240895A1E237
:1029D0001A2EAA1BBB1BFD010DC0AA1FBB1FEE1F99
:1029E000FF1FA217B307E407F50720F0A21BB30BE4
:1029F000E40BF50B661F771F881F991F1A9469F760
:102A000060957095809590959B01AC01BD01CF01BB
:102A10000895052E97FB1EF400940E94201557FD83
:102A200007D00E94E71407FC03D04EF40C94201545
:102A300050954095309521953F4F4F4F5F4F0895EA
:102A400090958095709561957F4F8F4F9F4F08951A
:102A50000E94C416A59F900DB49F900DA49F800D59
:102A6000911D11240895B7FF0C9428150E94281574
:102A7000821B930B0895DF93CF931F930F939A9D1F
:102A8000F02D219FF00D8B9DF00D8A9DE02DF10D15
:102A9000039FF00D029FE00DF11D4E9DE00DF11D15
:102AA0005E9DF00D4F9DF00D7F936F93BF92AF929F
:102AB0005F934F93D5010E94C4168B01AC01D701DF
:102AC0000E94C416EB01E80FF91FD6010E948A1577
:102AD0002F913F91D6010E94C416C60FD71FE81F41
:102AE000F91FAF91BF910E948A152F913F910E94CB
:102AF000C416C60FD71FE81FF91FD6010E94C416BF
:102B0000E60FF71F9801BE01CF010F911F91CF91E2
:102B1000DF9108950E94C416460F571FC81FD91F82
:102B200008F431960895689401C0E894F92FF12BC8
:102B300012F00C94C715A0E0B0E0E1EAF5E10C94C6
:102B40003916092E059422F40E942316112392F4BB
:102B5000F0E80F26FFEFE094F09400951095B09404
:102B6000C094D094A194BF0ACF0ADF0AEF0AFF0AEB
:102B70000F0B1F0B0E94D21507FC0E942316CDB726
:102B8000DEB7ECE00C945516689401C0E8948F927F
:102B90009F92CF93DF930E94D215DF91CF919F90A8
:102BA0008F90089588249924F401E401B0E49F9360
:102BB000AA279A158B049C04ED05FE05CF05D007C6
:102BC000A10798F4AD2FDC2FCF2FFE2FE92D982CE5
:102BD000892E982F872F762F652F542F432F322F32
:102BE0002227B85031F7BF9127C01B2EBF91BB27BA
:102BF000220F331F441F551F661F771F881F991F01
:102C0000881C991CEE1FFF1FCC1FDD1FAA1FBB1FB6
:102C10008A149B04EC05FD05CE05DF05A007B1076E
:102C200048F08A189B08EC09FD09CE09DF09A00BC2
:102C3000B10B21601A94E1F62EF49401AF01BE01AC
:102C4000CD01000C08956095709580959095309514
:102C50004095509521953F4F4F4F5F4F6F4F7F4F9E
:102C60008F4F9F4F08952F923F924F925F926F9296
:102C70007F928F929F92AF92BF92CF92DF92EF920C
:102C8000FF920F931F93CF93DF93CDB7DEB7CA1B8D
:102C9000DB0B0FB6F894DEBF0FBECDBF09942A88B8
:102CA000398848885F846E847D848C849B84AA8460
:102CB000B984C884DF80EE80FD800C811B81AA81ED
:102CC000B981CE0FD11D0FB6F894DEBF0FBECDBFB8
:102CD000ED010895002E083090F0982F872F762F61
:102CE000652F542F432F322F22270850F4CF220F65
:102CF000331F441F551F661F771F881F991F0A9592
:102D0000B2F7002D089597FD1094002E083098F02A
:102D10000850232F342F452F562F672F782F892FB8
:102D2000912DF4CF1594979587957795679557953D
:102D30004795379527950A95AAF71124002D0895F0
:102D40002A0D3B1D4C1D5D1D6E1D7F1D801F911F9B
:102D500008952A193B094C095D096E097F09800B0A
:102D6000910B08950024A7FD00942A173005400513
:102D7000500560057005800590050895EE0FFF1F52
:102D80000590F491E02D0994A29FB001B39FC0017A
:102D9000A39F700D811D1124911DB29F700D811D87
:102DA0001124911D08955058BB27AA270E94EB16A5
:102DB0000C94B2180E94A41838F00E94AB1820F0AE
:102DC00039F49F3F19F426F40C9491180EF4E09511
:102DD000E7FB0C948B18E92F0E94C31858F3BA171D
:102DE000620773078407950720F079F4A6F50C9421
:102DF000E5180EF4E0950B2EBA2FA02D0B01B901AA
:102E000090010C01CA01A0011124FF27591B99F060
:102E1000593F50F4503E68F11A16F040A22F232F6C
:102E2000342F4427585FF3CF469537952795A795BC
:102E3000F0405395C9F77EF41F16BA0B620B730B63
:102E4000840BBAF09150A1F0FF0FBB1F661F771FD4
:102E5000881FC2F70EC0BA0F621F731F841F48F489
:102E6000879577956795B795F7959E3F08F0B0CF12
:102E70009395880F08F09927EE0F979587950895F9
:102E80000E94671808F481E008950E9459170C9475
:102E9000B2180E94AB1858F00E94A41840F029F410
:102EA0005F3F29F00C948B1851110C94E6180C9488
:102EB00091180E94C31868F39923B1F3552391F335
:102EC000951B550BBB27AA2762177307840738F099
:102ED0009F5F5F4F220F331F441FAA1FA9F335D0F6
:102EE0000E2E3AF0E0E832D091505040E695001CAA
:102EF000CAF72BD0FE2F29D0660F771F881FBB1F64
:102F0000261737074807AB07B0E809F0BB0B802D41
:102F1000BF01FF2793585F4F3AF09E3F510578F06D
:102F20000C948B180C94E6185F3FE4F3983ED4F3AE
:102F3000869577956795B795F7959F5FC9F7880F41
:102F4000911D9695879597F90895E1E0660F771F93
:102F5000881FBB1F621773078407BA0720F0621B24
:102F6000730B840BBA0BEE1F88F7E09508950E944F
:102F7000CB1888F09F5798F0B92F9927B751B0F028
:102F8000E1F0660F771F881F991F1AF0BA95C9F7ED
:102F900014C0B13091F00E94E518B1E008950C948E
:102FA000E518672F782F8827B85F39F0B93FCCF341
:102FB000869577956795B395D9F73EF4909580956A
:102FC000709561957F4F8F4F9F4F089597FB16F433
:102FD0000E9494180C942A18E89409C097FB3EF4B8
:102FE00090958095709561957F4F8F4F9F4F992356
:102FF000A9F0F92F96E9BB279395F69587957795D4
:103000006795B795F111F8CFFAF4BB0F11F460FF93
:103010001BC06F5F7F4F8F4F9F4F16C0882311F0EB
:1030200096E911C0772321F09EE8872F762F05C0FF
:10303000662371F096E8862F70E060E02AF09A959A
:10304000660F771F881FDAF7880F9695879597F98F
:103050000895E894F92F96EBFF2381F012161306DA
:103060001406440B9395F695879577956795579534
:103070004040FF23B9F71BC099270895882351F4D6
:103080009850D2F7872B762F652F542F432F322F4E
:1030900020E0B1F3121613061406440B88233AF00D
:1030A0009A95440F551F661F771F881FCAF755232F
:1030B0004AF4440F551F11F460FF04C06F5F7F4F47
:1030C0008F4F9F4F880F9695879597F90895990F81
:1030D0000008550FAA0BE0E8FEEF16161706E807E2
:1030E000F907C0F012161306E407F50798F0621B03
:1030F000730B840B950B39F40A2661F0232B242BD8
:10310000252B21F408950A2609F4A140A6958FEFF6
:10311000811D811D089597F99F6780E870E060E048
:1031200008959FEF80EC0895909580957095609537
:1031300050954095309521953F4F4F4F5F4F6F4FC2
:103140007F4F8F4F9F4F089500240A94161617063D
:1031500018060906089500240A9412161306140688
:1031600005060895092E0394000C11F4882352F0EB
:10317000BB0F40F4BF2B11F460FF04C06F5F7F4FA3
:103180008F4F9F4F089557FD9058440F551F59F08A
:103190005F3F71F04795880F97FB991F61F09F3F44
:1031A00079F087950895121613061406551FF2CF6D
:1031B0004695F1DF08C0161617061806991FF1CFBD
:1031C00086957105610508940895E894BB276627E4
:1031D0007727CB0197F908950E94671808F48FEFBD
:1031E00008950E9404190C94B2180E94A41838F093
:1031F0000E94AB1820F0952311F00C948B180C94BE
:10320000911811240C94E6180E94C31870F3959F2E
:10321000C1F3950F50E0551F629FF001729FBB27CD
:10322000F00DB11D639FAA27F00DB11DAA1F649F69
:103230006627B00DA11D661F829F2227B00DA11D1C
:10324000621F739FB00DA11D621F839FA00D611DA2
:10325000221F749F3327A00D611D231F849F600DC3
:10326000211D822F762F6A2F11249F5750409AF0EC
:10327000F1F088234AF0EE0FFF1FBB1F661F771F78
:10328000881F91505040A9F79E3F510580F00C9443
:103290008B180C94E6185F3FE4F3983ED4F38695C0
:1032A00077956795B795F795E7959F5FC1F7FE2BE3
:1032B000880F911D9695879597F90895FA01EE0F5D
:1032C000FF1F309621053105A1F16115710561F4EB
:1032D0008038BFE39B0749F168949038810561F01D
:1032E0008038BFEF9B0741F099234AF5FF3FE10586
:1032F0003105210519F1E8940894E795D901AA232D
:1033000029F4AB2FBE2FF85FD0F310C0FF5F70F42D
:10331000A695E0F7F73950F019F0FF3A38F49F77A7
:103320009F930DD00F9007FC9058089546F00C9491
:10333000911860E070E080E89FE308954FE79F7781
:103340005F934F933F932F930E945E1A2F913F916B
:103350004F915F910E94F1180C94BB190E9467185D
:10336000880B990B089529F416F00C948B180C9483
:10337000E5180C9491180E94CB18A8F39638A0F782
:1033800007F80F92E8942BE33AEA48EB5FE70E94D4
:1033900007190F920F920F924DB75EB70F920E94CE
:1033A000A61AE8E6F0E00E94ED194F915F91EF91C7
:1033B000FF91E595EE1FFF1F49F0FE57E068442797
:1033C000EE0F441FFA95E1F74195550B0E94201A24
:1033D0000F9007FE0C94141A0895DF93CF931F9358
:1033E0000F93FF92EF92DF927B018C01689406C0ED
:1033F000DA2EEF010E940419FE01E894A5912591AF
:10340000359145915591A6F3EF010E94EB16FE010F
:103410009701A801DA9469F7DF90EF90FF900F9180
:103420001F91CF91DF9108959B01AC0160E070E0A6
:1034300080E89FE30C9445170C948B180C94DA1ACF
:103440000E94CB18D8F39923C9F3940F511DA3F30D
:103450009150504094F059F0882332F0660F771F56
:10346000881F91505040C1F79E3F51052CF7880F9F
:10347000911D9695879597F908955F3FACF0983E1A
:103480009CF0BB27869577956795B79508F4B16052
:103490009395C1F7BB0F58F711F460FFE8CF6F5F4A
:1034A0007F4F8F4F9F4FE3CF0C94E61816F00C948C
:1034B000DA1A0C94911868940C948B180E94CB180B
:1034C000A8F39923C1F3AEF3DF93CF931F930F9328
:1034D000FF92C92FDD2788232AF02197660F771FD7
:1034E000881FDAF720E030E040E85FEB9FE388399F
:1034F00020F0803E38F021968F770E94D416E0E9C4
:10350000F0E004C00E94D416EDEBF0E00E94ED194B
:103510008B01BE01EC01FB2E6F5771097595771F6A
:10352000880B990B0E94EE1728E132E741E35FE335
:103530000E940419AF2D9801AE01FF900F911F91C9
:10354000CF91DF910E94EB160C94B218FA01DC01C6
:10355000AA0FBB1F9B01AC01BF5728F422273327BA
:103560004427507820C0B75190F4AB2F00244695E3
:1035700037952795011CA395D2F3002071F0220FF7
:10358000331F441FB395DAF30ED00C94D316613079
:103590007105A0E88A07B94630F49B01AC016627A3
:1035A000772788279078309621F0208331834283D3
:1035B000538308959F3F31F0915020F4879577957C
:1035C0006795B795880F911D9695879597F90895FA
:1035D0000F931F93CF93DF93869F8001879F100DDA
:1035E000969F100D1124C8010E94041BEC01009746
:1035F00029F0A80170E060E00E94291CCE01DF9153
:10360000CF911F910F9108950F931F93CF93DF9345
:103610008230910510F482E090E0E0912F03F09168
:10362000300330E020E0B0E0A0E0309799F42115BD
:10363000310509F44AC0281B390B24303105D8F56F
:103640008A819B816115710589F1FB0193838283D6
:10365000FE0111C040815181028113814817590731
:10366000E0F04817590799F4109761F012960C93FF
:10367000129713961C933296CF01DF91CF911F9131
:103680000F91089500932F0310933003F4CF211569
:10369000310551F04217530738F0A901DB019A01B7
:1036A000BD01DF01F801C1CFEF01F9CF90933003E5
:1036B00080932F03CDCFFE01E20FF31F81939193EF
:1036C0002250310939832883D7CF20912D0330919F
:1036D0002E03232B41F420910A0130910B013093EA
:1036E0002E0320932D03209108013091090121150B
:1036F000310541F42DB73EB740910C0150910D01B9
:10370000241B350BE0912D03F0912E03E217F307F4
:10371000A0F42E1B3F0B2817390778F0AC014E5F41
:103720005F4F2417350748F04E0F5F1F50932E034D
:1037300040932D03819391939FCFF0E0E0E09CCFE5
:10374000CF93DF930097E9F0FC0132971382128246
:10375000A0912F03B0913003ED0130E020E01097ED
:10376000A1F420813181820F931F20912D0330918C
:103770002E032817390709F061C0F0932E03E09358
:103780002D03DF91CF910895EA01CE17DF07E8F509
:103790004A815B819E0141155105B1F7E901FB8327
:1037A000EA8349915991C40FD51FEC17FD0761F4C5
:1037B000808191810296840F951FE9019983888306
:1037C000828193819B838A83F0E0E0E012968D9161
:1037D0009C9113970097B9F52D913C911197CD01CC
:1037E0000296820F931F20912D0330912E032817EC
:1037F000390739F6309751F51092300310922F03A4
:10380000B0932E03A0932D03BCCFD383C2834081FA
:103810005181840F951FC817D90761F44E5F5F4F20
:1038200088819981480F591F518340838A819B81E8
:10383000938382832115310509F0B0CFF0933003D3
:10384000E0932F039ECFFD01DC01C0CF13821282D3
:10385000D7CFDC0101C06D9341505040E0F708958F
:1038600010E0C2EFD0E004C0FE010E94BE16219617
:0A387000C33FD107C9F7F894FFCF5A
:10387A0088130000200320030000310380000000A9
:10388A000000C10321034E0329047F035D03710372
:10389A00000000004D0620067C06F60519060606FD
:1038AA00F7050D0A006E616E00696E66006F766636
:1038BA000050726F6772616D6D6520646520746572
:1038CA00737420647520424D45323830003D3D3DC9
:1038DA003D3D3D3D3D3D3D3D3D3D3D3D3D3D3D3D0E
:0A38EA003D3D3D3D3D3D3D3D0000EC
:00000001FF
