:100000000C945E000C9477040C9450040C948600BD
:100010000C9486000C9486000C9486000C94860048
:100020000C9486000C9486000C9486000C94F604C4
:100030000C9486000C9486000C9486000C94860028
:100040000C9406040C9486000C94C4040C949E0436
:100050000C9486000C9486000C9486000C94860008
:100060000C9486000C9486000000000024002700F9
:100070002A0000000000250028002B0004040404CE
:100080000404040402020202020203030303030342
:10009000010204081020408001020408102001021F
:1000A00004081020000000080002010000030407FB
:1000B00000000000000000007905EF0611241FBEBB
:1000C000CFEFD8E0DEBFCDBF11E0A0E0B1E0E2E5C8
:1000D000F1E102C005900D92A432B107D9F721E0F9
:1000E000A4E2B1E001C01D92AF3DB207E1F710E01C
:1000F000CDE5D0E004C02197FE010E941707CC3562
:10010000D107C9F70E94BA050C949C080C94000012
:1001100090E0FC01EC55FF4F2491FC01E057FF4FAC
:100120003491FC01E458FF4FE491EE23C9F02223FF
:1001300039F0233001F1A8F4213019F1223029F1EE
:10014000F0E0EE0FFF1FEE58FF4FA591B4918FB76F
:10015000F894EC91611126C030953E233C938FBFFB
:1001600008952730A9F02830C9F0243049F780914C
:1001700080008F7D03C0809180008F778093800006
:10018000DFCF84B58F7784BDDBCF84B58F7DFBCF88
:100190008091B0008F778093B000D2CF8091B00073
:1001A0008F7DF9CF3E2BDACF0F931F93CF93DF9341
:1001B000D82FC8E00BE410E08091D10161E0D7FFB7
:1001C00060E00E94880060E08091D0010E94880079
:1001D000C8010197F1F761E08091D0010E94880089
:1001E000C8010197F1F7DD0FC15031F7DF91CF91D1
:1001F0001F910F910895BF92CF92DF92EF92FF92DD
:100200000F931F93CF93DF93D82F162F042FF22E27
:1002100080E00E94D40080E00E94D40080E00E9430
:10022000D40080E00E94D400C0E083E0E82E8091FA
:10023000D201C81708F04AC0CE9D90011124A9012F
:100240004F5F5F4FB9016E5F7F4FCD1315C0E091D7
:10025000D301F091D401E20FF31F1083E091D30199
:10026000F091D401E40FF51F0083E091D301F091E8
:10027000D401E60FF71FF0828091D3019091D40151
:10028000680F791FFB01D080480F591FFA01B08019
:10029000820F931FFC01C08080ECD7FE80EED6FE5B
:1002A0008061B7FE8860B6FE8460C7FE8260C6FECD
:1002B00081600E94D4008D2D0E94D4008B2D0E945D
:1002C000D4008C2D0E94D400CF5FB1CF80E00E947B
:1002D000D40080E00E94D40080E00E94D40080E03E
:1002E000DF91CF911F910F91FF90EF90DF90CF9012
:1002F000BF900C94D400CF93DF9390E0FC01E057C3
:10030000FF4F249184589F4FFC0184918823D1F0A2
:1003100090E0880F991FFC01E859FF4FA591B49117
:10032000FC01EE58FF4FC591D49161110EC09FB7EB
:10033000F8948C91E22FE0958E238C932881E22310
:10034000E8839FBFDF91CF9108958FB7F894EC9128
:10035000E22BEC938FBFF6CF3FB7F89480912F013B
:1003600090913001A0913101B091320126B5A89B46
:1003700005C02F3F19F00196A11DB11D3FBFBA2F37
:10038000A92F982F8827BC01CD01620F711D811DF7
:10039000911D42E0660F771F881F991F4A95D1F77C
:1003A00008950895AF92BF92CF92DF92EF92FF929D
:1003B0000F931F93CF93DF936C017B018B01040F8D
:1003C000151FEB015E01AE18BF08C017D10759F029
:1003D0006991D601ED91FC910190F081E02DC6016B
:1003E0000995892B79F7C501DF91CF911F910F9165
:1003F000FF90EF90DF90CF90BF90AF900895FC01F9
:10040000538D448D252F30E0842F90E0821B930B79
:10041000541710F0CF96089501970895FC01918D1F
:10042000828D981761F0A28DAE0FBF2FB11D5D9622
:100430008C91928D9F5F9F73928F90E008958FEFC4
:100440009FEF0895FC01918D828D981731F0828D78
:10045000E80FF11D858D90E008958FEF9FEF0895CF
:10046000FC01918D228D892F90E0805C9F4F821B33
:1004700091098F739927089583E391E00E943002D8
:1004800021E0892B09F420E0822F089580E090E09C
:10049000892B29F00E943C0281110C9400000895E0
:1004A000FC01A48DA80FB92FB11DA35ABF4F2C91E9
:1004B000848D90E001968F739927848FA689B789E0
:1004C0002C93A089B1898C91837080648C93938DD7
:1004D000848D981306C00288F389E02D80818F7D7A
:1004E00080830895EF92FF920F931F93CF93DF9332
:1004F000EC0181E0888F9B8D8C8D98131AC0E88960
:10050000F989808185FF15C09FB7F894EE89FF892E
:100510006083E889F98980818370806480839FBFCC
:1005200081E090E0DF91CF911F910F91FF90EF90CC
:100530000895F62E0B8D10E00F5F1F4F0F731127DC
:10054000E02E8C8D8E110CC00FB607FCFACFE88917
:10055000F989808185FFF5CFCE010E945002F1CF4D
:10056000EB8DEC0FFD2FF11DE35AFF4FF0829FB78B
:10057000F8940B8FEA89FB8980818062CFCFCF937B
:10058000DF93EC01888D8823B9F0AA89BB89E889BB
:10059000F9898C9185FD03C0808186FD0DC00FB661
:1005A00007FCF7CF8C9185FFF2CF808185FFEDCFDF
:1005B000CE010E945002E9CFDF91CF910895809142
:1005C0002601909127010197D9F4809124019091FF
:1005D0002501892BA9F4109227011092260110926F
:1005E0002501109224018091040190910501A091B0
:1005F0000601B0910701892B8A2B8B2B41F00895BE
:100600008091260190912701892B01F10895809115
:10061000280190912901892B61F483E090E0909367
:100620002901809328012FEF40E060E080E00C94E6
:10063000FB0080912801909129010397E9F4109221
:1006400029011092280120E04FEFEFCF88E893E1D5
:10065000A0E0B0E08093040190930501A09306010F
:10066000B093070181E090E09093270180932601E9
:1006700010922501109224010895809124019091F7
:100680002501019709F054C080912601909127011E
:10069000892B09F04DC0109225011092240110926F
:1006A0002701109226018091040190910501A091EB
:1006B0000601B0910701892B8A2B8B2B01F58091C4
:1006C000280190912901019761F482E090E09093D4
:1006D00029018093280120E045EA6FEF80E00C9427
:1006E000FB008091280190912901029741F410921A
:1006F00029011092280120E04FEF60E0EFCF81E068
:1007000090E0909329018093280120E04FEF6FEF54
:1007100080E00E94FB0080E497E7A0E0B0E08093D7
:10072000040190930501A0930601B0930701089579
:100730008091240190912501892BB1F488E893E1FF
:10074000A0E0B0E08093040190930501A09306011E
:10075000B093070181E090E09093250180932401FC
:1007600010922701109226010895FC0101900020AB
:10077000E9F73197AF01481B590BBC0183E391E0C6
:100780000C94D2018F929F92AF92BF920F931F93BE
:10079000CF93DF93CDB7DEB7A1970FB6F894DEBF46
:1007A0000FBECDBF19A2423008F44AE08E010F5DA2
:1007B0001F4F842E912CB12CA12CA50194010E94D5
:1007C000F506E62FB901CA01EA30F4F4E05DD8017C
:1007D000EE938D01232B242B252B79F790E080E0DD
:1007E000109719F0CD010E94B503A1960FB6F894A9
:1007F000DEBF0FBECDBFDF91CF911F910F91BF9094
:10080000AF909F908F900895E95CE1CF1F920F9277
:100810000FB60F9211242F933F938F939F93AF9313
:10082000BF9380912B0190912C01A0912D01B0914B
:100830002E0130912A0123E0230F2D3758F5019620
:10084000A11DB11D20932A0180932B0190932C01AF
:10085000A0932D01B0932E0180912F019091300132
:10086000A0913101B09132010196A11DB11D80937B
:100870002F0190933001A0933101B0933201BF91C9
:10088000AF919F918F913F912F910F900FBE0F903D
:100890001F90189526E8230F0296A11DB11DD2CFF7
:1008A0001F920F920FB60F9211242F933F934F93E5
:1008B0005F936F937F938F939F93AF93BF93EF93C8
:1008C000FF93E0910201F09103010995FF91EF91EF
:1008D000BF91AF919F918F917F916F915F914F9158
:1008E0003F912F910F900FBE0F901F9018951F9260
:1008F0000F920FB60F9211242F933F934F935F9354
:100900006F937F938F939F93AF93BF93EF93FF93D7
:10091000E0910001F09101010995FF91EF91BF91E4
:10092000AF919F918F917F916F915F914F913F9187
:100930002F910F900FBE0F901F9018951F920F923E
:100940000FB60F9211242F933F934F935F936F93A2
:100950007F938F939F93AF93BF93EF93FF9383E323
:1009600091E00E945002FF91EF91BF91AF919F9152
:100970008F917F916F915F914F913F912F910F9048
:100980000FBE0F901F9018951F920F920FB60F92E7
:1009900011242F938F939F93EF93FF93E091430143
:1009A000F09144018081E0914901F0914A0182FD7A
:1009B0001BC0908180914C018F5F8F7320914D01FE
:1009C000821741F0E0914C01F0E0ED5CFE4F958F15
:1009D00080934C01FF91EF919F918F912F910F90F8
:1009E0000FBE0F901F9018958081F4CF1F920F9229
:1009F0000FB60F9211242F933F934F935F936F93F2
:100A00007F938F939F93AF93BF93EF93FF938091C7
:100A1000240190912501892B31F480912601909138
:100A20002701892B29F180912801909129010197B3
:100A3000F9F08091040190910501A0910601B09117
:100A40000701892B8A2B8B2B99F0809104019091BF
:100A50000501A0910601B09107010197A109B10913
:100A60008093040190930501A0930601B0930701C0
:100A700080912801909129010197F9F48091040156
:100A800090910501A0910601B0910701892B8A2B55
:100A90008B2B21F18091040190910501A091060119
:100AA000B09107010197A109B109809304019093C6
:100AB0000501A0930601B0930701FF91EF91BF914B
:100AC000AF919F918F917F916F915F914F913F91E6
:100AD0002F910F900FBE0F901F9018951092290123
:100AE0001092280120E04FEF60E080E00E94FB00C0
:100AF000E4CFCF93DF93E3E3F1E01382128288EE39
:100B000093E0A0E0B0E084839583A683B78382E17D
:100B100091E09183808385EC90E09587848784ECD5
:100B200090E09787868780EC90E0918B808B81ECBA
:100B300090E0938B828B82EC90E0958B848B86EC9B
:100B400090E0978B868B118E128E138E148EC0EDD3
:100B5000D1E087E0888388E0898381E08A8361E04F
:100B600070E083E090E00E941D079C838B83DF91FF
:100B7000CF910895789484B5826084BD84B58160F6
:100B800084BD85B5826085BD85B5816085BD809158
:100B90006E00816080936E001092810080918100D0
:100BA00082608093810080918100816080938100C8
:100BB000809180008160809380008091B10084608A
:100BC0008093B1008091B00081608093B0008091EB
:100BD0007A00846080937A0080917A0082608093AA
:100BE0007A0080917A00816080937A0080917A0007
:100BF000806880937A001092C10061E08091D001FA
:100C00000E947B0161E08091D1010E947B01C0E0E4
:100C10008091D201C81740F420E040E060E08C2FC2
:100C20000E94FB00CF5FF4CFE0914301F0914401BB
:100C300082E08083E0913F01F09140011082E091D9
:100C40004101F09142018FEC808310924B01E091C1
:100C50004701F091480186E08083E0914501F091E1
:100C60004601808180618083E0914501F0914601D9
:100C7000808188608083E0914501F0914601808108
:100C800080688083E0914501F091460180818F7DED
:100C9000808383E090E00E94650860E083E00E942A
:100CA0007B0160E082E00E947B01F894109280005A
:100CB0001092810010928500109284008DE390E0E4
:100CC0009093890080938800809181008860809350
:100CD00081008091810084608093810080916F0009
:100CE000826080936F0078948DE393E0909303018A
:100CF0008093020180916900837F84608093690002
:100D0000E99A8FED92E09093010180930001809128
:100D100069008C7F816080936900E89AC0E0D0E030
:100D20000E94AC014B015C0188EEC82E83E0D82EF6
:100D3000E12CF12C0E94AC01681979098A099B0900
:100D4000683E734081059105A8F321E0C21AD108DD
:100D5000E108F10888EE880E83E0981EA11CB11C02
:100D6000C114D104E104F10429F7609104017091E8
:100D7000050180910601909107014AE00E94C2039B
:100D800080E291E00E94B503C0902801D090290133
:100D90000D2C000CEE08FF084AE0C701B601F7FE73
:100DA0000DC06DE283E391E00E947202662777270F
:100DB000CB016C197D098E099F094AE00E94C2038C
:100DC00080E291E00E94B503209709F4A9CF0E9428
:100DD0003C02882309F4A4CF0E940000A1CF809197
:100DE000D3019091D4010C94D507A1E21A2EAA1B2D
:100DF000BB1BFD010DC0AA1FBB1FEE1FFF1FA217CB
:100E0000B307E407F50720F0A21BB30BE40BF50BC7
:100E1000661F771F881F991F1A9469F76095709550
:100E2000809590959B01AC01BD01CF010895EE0F17
:100E3000FF1F0590F491E02D09940F931F93CF931A
:100E4000DF93869F8001879F100D969F100D1124C0
:100E5000C8010E943907EC01009729F0A80170E051
:100E600060E00E945E08CE01DF91CF911F910F914B
:100E700008950F931F93CF93DF938230910510F461
:100E800082E090E0E091D701F091D80130E020E0DD
:100E9000B0E0A0E0309799F42115310509F44AC07B
:100EA000281B390B24303105D8F58A819B816115C7
:100EB000710589F1FB0193838283FE0111C040819A
:100EC00051810281138148175907E0F048175907EB
:100ED00099F4109761F012960C93129713961C9345
:100EE0003296CF01DF91CF911F910F91089500931A
:100EF000D7011093D801F4CF2115310551F04217D5
:100F0000530738F0A901DB019A01BD01DF01F801A7
:100F1000C1CFEF01F9CF9093D8018093D701CDCF06
:100F2000FE01E20FF31F819391932250310939831F
:100F30002883D7CF2091D5013091D601232B41F4BE
:100F400020910A0130910B013093D6012093D501F5
:100F500020910801309109012115310541F42DB787
:100F60003EB740910C0150910D01241B350BE091CF
:100F7000D501F091D601E217F307A0F42E1B3F0B29
:100F80002817390778F0AC014E5F5F4F24173507FB
:100F900048F04E0F5F1F5093D6014093D5018193C7
:100FA00091939FCFF0E0E0E09CCFCF93DF93009749
:100FB000E9F0FC01329713821282A091D701B0911F
:100FC000D801ED0130E020E01097A1F420813181BB
:100FD000820F931F2091D5013091D6012817390730
:100FE00009F061C0F093D601E093D501DF91CF9174
:100FF0000895EA01CE17DF07E8F54A815B819E017B
:1010000041155105B1F7E901FB83EA8349915991F3
:10101000C40FD51FEC17FD0761F480819181029602
:10102000840F951FE90199838883828193819B8333
:101030008A83F0E0E0E012968D919C9113970097DF
:10104000B9F52D913C911197CD010296820F931F16
:101050002091D5013091D6012817390739F63097FC
:1010600051F51092D8011092D701B093D601A093F8
:10107000D501BCCFD383C28340815181840F951F9A
:10108000C817D90761F44E5F5F4F88819981480F77
:10109000591F518340838A819B81938382832115C9
:1010A000310509F0B0CFF093D801E093D7019ECF7E
:1010B000FD01DC01C0CF13821282D7CFDC0101C059
:1010C0006D9341505040E0F708956091DB017091BD
:1010D000DC010E946C0808950F931F93CF93DF9358
:1010E000182F092FEB018B8181FD09C01FEF0FEF36
:1010F000812F902FDF91CF911F910F91089582FF43
:1011000014C02E813F818C819D81281739073CF4C2
:10111000E881F981CF0101969983888310838E81BC
:101120009F8101969F838E83E3CFE885F985812F88
:101130000995892BA1F3DACF10E0CDE5D0E004C00A
:10114000FE010E9417072196CE35D107C9F7F89402
:02115000FFCFCF
:10115200D101D101881300000000DF0180000000EE
:1011620000007202D201FF01BF0230020E0222020F
:041172000D0A000062
:00000001FF
